:020000040800F2
:100000000050002099700008F19B0008F59B000843
:10001000F99B0008FD9B0008019C000800000000FF
:10002000000000000000000000000000059C000827
:10003000099C0008000000000D9C0008E970000801
:10004000E9700008E9700008E9700008E97000082C
:10005000E9700008E9700008E9700008E97000081C
:10006000E9700008E9700008E9700008E97000080C
:10007000E9700008E9700008E9700008E9700008FC
:10008000E9700008E9700008E9700008E9700008EC
:10009000119C0008E9700008E97000085982000806
:1000A000E9700008E9700008E9700008E9700008CC
:1000B000ED71000881740008E9700008E97000081B
:1000C000E9700008E9700008E9700008E9700008AC
:1000D000E9700008E9700008E9700008E97000089C
:1000E000252E0008E9700008E970000800000000F3
:1000F0000000000000000000000000000000000000
:0C01000000000000000000005FF808F1A3
:1001100010B5054C237833B9044B13B10448AFF341
:1001200000800123237010BD200500200000000086
:1001300054AE000808B5034B1BB103490348AFF3A5
:10014000008008BD000000002405002054AE000817
:1001500081F0004102E000BF83F0004330B54FEA78
:1001600041044FEA430594EA050F08BF90EA020FE5
:100170001FBF54EA000C55EA020C7FEA645C7FEA78
:10018000655C00F0E2804FEA5454D4EB5555B8BF9B
:100190006D420CDD2C4480EA020281EA030382EA0C
:1001A000000083EA010180EA020281EA0303362D9E
:1001B00088BF30BD11F0004F4FEA01314FF4801C71
:1001C0004CEA113102D0404261EB410113F0004F83
:1001D0004FEA03334CEA133302D0524263EB43033A
:1001E00094EA050F00F0A780A4F10104D5F1200ED8
:1001F0000DDB02FA0EFC22FA05F2801841F1000133
:1002000003FA0EF2801843FA05F359410EE0A5F106
:1002100020050EF1200E012A03FA0EFC28BF4CF037
:10022000020C43FA05F3C01851EBE37101F00045ED
:1002300007D54FF0000EDCF1000C7EEB00006EEBFA
:100240000101B1F5801F1BD3B1F5001F0CD3490884
:100250005FEA30004FEA3C0C04F101044FEA4452DB
:1002600012F5800F80F09A80BCF1004F08BF5FEA62
:10027000500C50F1000041EB045141EA050130BD42
:100280005FEA4C0C404141EB0101013C28BFB1F554
:10029000801FE9D291F0000F04BF01460020B1FA9F
:1002A00081F308BF2033A3F10B03B3F120020CDA72
:1002B0000C3208DD02F1140CC2F10C0201FA0CF050
:1002C00021FA02F10CE002F11402D8BFC2F1200CB5
:1002D00001FA02F120FA0CFCDCBF41EA0C0190406B
:1002E000E41AA2BF01EB0451294330BD6FEA0404B4
:1002F0001F3C1CDA0C340EDC04F11404C4F120029F
:1003000020FA04F001FA02F340EA030021FA04F3B0
:1003100045EA030130BDC4F10C04C4F1200220FA07
:1003200002F001FA04F340EA0300294630BD21FA45
:1003300004F0294630BD94F0000F83F4801306BF0B
:1003400081F480110134013D4EE77FEA645C18BFFF
:100350007FEA655C29D094EA050F08BF90EA020F96
:1003600005D054EA000C04BF1946104630BD91EA8E
:10037000030F1EBF0021002030BD5FEA545C05D191
:100380004000494128BF41F0004130BD14F58004D0
:100390003CBF01F5801130BD01F0004545F0FE4144
:1003A00041F470014FF0000030BD7FEA645C1ABF79
:1003B000194610467FEA655C1CBF0B46024650EAB0
:1003C000013406BF52EA033591EA030F41F40021DC
:1003D00030BD00BF90F0000F04BF0021704730B562
:1003E0004FF4806404F132044FF000054FF0000137
:1003F00050E700BF90F0000F04BF0021704730B5F8
:100400004FF4806404F1320410F0004548BF4042CC
:100410004FF000013EE700BF42004FEAE2014FEA21
:1004200031014FEA02701FBF12F07F4393F07F4FFC
:1004300081F06051704732F07F4208BF704793F0FF
:100440007F4F04BF41F40021704730B54FF4607412
:1004500001F0004521F000411CE700BF50EA010215
:1004600008BF704730B54FF000050AE050EA0102BE
:1004700008BF704730B511F0004502D5404261EB2E
:1004800041014FF4806404F132045FEA915C3FF46F
:10049000D8AE4FF003025FEADC0C18BF03325FEA0C
:1004A000DC0C18BF033202EBDC02C2F1200300FABD
:1004B00003FC20FA02F001FA03FE40EA0E0021FAE2
:1004C00002F11444BDE600BF4FF0FF3C06E000BF60
:1004D0004FF0010C02E000BF4FF0010C4DF804CDCD
:1004E0004FEA410C7FEA6C5C4FEA430C18BF7FEA8D
:1004F0006C5C1BD001B050EA410C0CBF52EA430CBB
:1005000091EA030F02BF90EA020F0020704710F13A
:10051000000F91EA030F58BF994208BF90422CBFC9
:10052000D8176FEAE37040F0010070474FEA410CC2
:100530007FEA6C5C02D150EA013C07D14FEA430CE0
:100540007FEA6C5CD6D152EA033CD3D05DF8040B51
:10055000704700BF8446104662468C461946634683
:1005600000E000BF01B5FFF7B7FF002848BF10F15A
:10057000000F01BD4DF808EDFFF7F4FF0CBF01209F
:1005800000205DF808FB00BF4DF808EDFFF7EAFF1B
:1005900034BF012000205DF808FB00BF4DF808EDD6
:1005A000FFF7E0FF94BF012000205DF808FB00BFCB
:1005B0004DF808EDFFF7CEFF94BF012000205DF855
:1005C00008FB00BF4DF808EDFFF7C4FF34BF012062
:1005D00000205DF808FB00BF4FEA4102B2F1E043A2
:1005E00024BFB3F5001CDCF1FE5C0DD901F0004C1A
:1005F0004FEAC0024CEA5070B2F1004F40EB83006A
:1006000008BF20F00100704711F0804F21D113F195
:100610003872BCBF01F00040704741F480114FEACE
:100620005252C2F11802C2F1200C10FA0CF320FA57
:1006300002F018BF40F001004FEAC1234FEAD32374
:1006400003FA0CFC40EA0C0023FA02F34FEA4303DE
:10065000CCE77FEA625307D150EA01331EBF4FF067
:10066000FE4040F44000704701F0004040F0FE4082
:1006700040F40000704700BF80F0004002E000BF7F
:1006800081F0004142001FBF5FEA410392EA030F7D
:100690007FEA226C7FEA236C6AD04FEA1262D2EBC7
:1006A0001363C1BFD218414048404140B8BF5B42CC
:1006B000192B88BF704710F0004F40F4000020F065
:1006C0007F4018BF404211F0004F41F4000121F07B
:1006D0007F4118BF494292EA030F3FD0A2F10102C5
:1006E00041FA03FC10EB0C00C3F1200301FA03F103
:1006F00000F0004302D5494260EB4000B0F5000F26
:1007000013D3B0F1807F06D340084FEA310102F1E4
:100710000102FE2A51D2B1F1004F40EBC25008BF96
:1007200020F0010040EA03007047490040EB000060
:10073000013A28BFB0F5000FEDD2B0FA80FCACF161
:10074000080CB2EB0C0200FA0CF0AABF00EBC2508E
:1007500052421843BCBFD0401843704792F0000F7C
:1007600081F4000106BF80F400000132013BB5E7CF
:100770004FEA41037FEA226C18BF7FEA236C21D045
:1007800092EA030F04D092F0000F08BF08467047AA
:1007900090EA010F1CBF0020704712F07F4F04D178
:1007A000400028BF40F00040704712F100723CBF8B
:1007B00000F50000704700F0004343F0FE4040F4B5
:1007C000000070477FEA226216BF08467FEA236373
:1007D0000146420206BF5FEA412390EA010F40F45E
:1007E000800070474FF0000304E000BF10F00043AA
:1007F00048BF40425FEA000C08BF704743F0964391
:1008000001464FF000001CE050EA010208BF7047AB
:100810004FF000030AE000BF50EA010208BF704732
:1008200011F0004302D5404261EB41015FEA010C47
:1008300002BF84460146002043F0B64308BFA3F13F
:100840008053A3F50003BCFA8CF2083AA3EBC25321
:1008500010DB01FA02FC634400FA02FCC2F1200240
:10086000BCF1004F20FA02F243EB020008BF20F077
:100870000100704702F1200201FA02FCC2F12002DD
:1008800050EA4C0021FA02F243EB020008BF20EAD2
:10089000DC7070474FF0FF0C1CEAD0521EBF1CEA00
:1008A000D15392EA0C0F93EA0C0F6FD01A4480EAEE
:1008B000010C400218BF5FEA41211ED04FF00063D7
:1008C00043EA501043EA5111A0FB01310CF0004003
:1008D000B1F5000F3EBF490041EAD3715B0040EA29
:1008E000010062F17F02FD2A1DD8B3F1004F40EBF9
:1008F000C25008BF20F00100704790F0000F0CF0CC
:10090000004C08BF49024CEA502040EA51207F3A8F
:10091000C2BFD2F1FF0340EAC250704740F400006A
:100920004FF00003013A5DDC12F1190FDCBF00F05B
:1009300000407047C2F10002410021FA02F1C2F109
:10094000200200FA02FC5FEA310040F1000053EAA5
:100950004C0308BF20EADC70704792F0000F00F0F3
:10096000004C02BF400010F4000F013AF9D040EAF9
:100970000C0093F0000F01F0004C02BF490011F48D
:10098000000F013BF9D041EA0C018FE70CEAD1538B
:1009900092EA0C0F18BF93EA0C0F0AD030F0004C0B
:1009A00018BF31F0004CD8D180EA010000F00040BF
:1009B000704790F0000F17BF90F0004F084691F07D
:1009C000000F91F0004F14D092EA0C0F01D14202B7
:1009D0000FD193EA0C0F03D14B0218BF084608D180
:1009E00080EA010000F0004040F0FE4040F40000CA
:1009F000704740F0FE4040F4400070474FF0FF0C5D
:100A00001CEAD0521EBF1CEAD15392EA0C0F93EAA3
:100A10000C0F69D0A2EB030280EA010C49024FEAF5
:100A2000402037D04FF0805343EA111143EA1013AE
:100A30000CF000408B4238BF5B0042F17D024FF466
:100A4000000C8B4224BF5B1A40EA0C00B3EB510F41
:100A500024BFA3EB510340EA5C00B3EB910F24BF2A
:100A6000A3EB910340EA9C00B3EBD10F24BFA3EBAF
:100A7000D10340EADC001B0118BF5FEA1C1CE0D177
:100A8000FD2A3FF650AF8B4240EBC25008BF20F02A
:100A9000010070470CF0004C4CEA50207F32C2BF7E
:100AA000D2F1FF0340EAC250704740F400004FF01B
:100AB0000003013A37E792F0000F00F0004C02BF4C
:100AC000400010F4000F013AF9D040EA0C0093F016
:100AD000000F01F0004C02BF490011F4000F013B70
:100AE000F9D041EA0C0195E70CEAD15392EA0C0FD8
:100AF00008D142027FF47DAF93EA0C0F7FF470AF10
:100B0000084676E793EA0C0F04D14B023FF44CAF52
:100B100008466EE730F0004C18BF31F0004CCAD1E7
:100B200030F000427FF45CAF31F000437FF43CAF23
:100B30005FE700BF4FF0FF3C06E000BF4FF0010C45
:100B400002E000BF4FF0010C4DF804CD4FEA400227
:100B50004FEA41037FEA226C18BF7FEA236C11D071
:100B600001B052EA530C18BF90EA010F58BFB2EB24
:100B7000030088BFC81738BF6FEAE17018BF40F0A4
:100B8000010070477FEA226C02D15FEA402C05D158
:100B90007FEA236CE4D15FEA412CE1D05DF8040BDD
:100BA000704700BF844608466146FFE70FB5FFF770
:100BB000C9FF002848BF10F1000F0FBD4DF808ED28
:100BC000FFF7F4FF0CBF012000205DF808FB00BF19
:100BD0004DF808EDFFF7EAFF34BF012000205DF873
:100BE00008FB00BF4DF808EDFFF7E0FF94BF0120C0
:100BF00000205DF808FB00BF4DF808EDFFF7D2FFBD
:100C000094BF012000205DF808FB00BF4DF808EDFF
:100C1000FFF7C8FF34BF012000205DF808FB00BFCC
:100C20004FEA40024FEA41037FEA226C02D15FEAB9
:100C3000402C08D17FEA236C02D15FEA412C02D11B
:100C40004FF0000070474FF0010070474FEA40023C
:100C5000B2F1FE4F0FD34FF09E03B3EB12620DD9EA
:100C60004FEA002343F0004310F0004F23FA02F054
:100C700018BF404270474FF00000704712F1610FFB
:100C800001D1420205D110F0004008BF6FF00040D2
:100C900070474FF00000704742000ED2B2F1FE4F95
:100CA0000BD34FF09E03B3EB126209D44FEA00233B
:100CB00043F0004323FA02F070474FF00000704702
:100CC00012F1610F01D1420202D14FF0FF307047A3
:100CD0004FF00000704700BF034B40F0BF6040F48E
:100CE0000030D860704700BF00ED00E0C378FBB172
:100CF000154A0F23D2680121D24330B4C2F3022235
:100D00004478C2F1040523FA02F28378AC40134020
:100D1000234302780D481B0102F01F058418DBB243
:100D2000A94084F80033520940F8221030BC7047C3
:100D30000121037805485A0903F01F03203201FA04
:100D400003F340F82230704700ED00E000E100E0DE
:100D500083793BB31D4B01681A6810B422EA010283
:100D60001A605A6822EA01025A60027902F180424E
:100D700002F582321468214311609968026821EA01
:100D800002019960D96821EA0201D96041791029EC
:100D900013D001F1804303F58233196810BC0A4374
:100DA0001A6070470379016803F1804303F58233C9
:100DB0001A6822EA01021A607047996810BC114350
:100DC0009960D9680A43DA60704700BF00040140A7
:100DD0000246054B19685869104003D0114214BFF0
:100DE00001200020704700BF00040140014B586102
:100DF000704700BF00040140024B0349034A596099
:100E00005A6070470020024023016745AB89EFCD4F
:100E1000324AD368DB0707D4D368590748D4D3686C
:100E2000DB0619D5032070474FF43023D168C9077A
:100E30000CD4D168490734D4D268D2060AD5013B14
:100E4000002B4FF0030008BF05207047013BEDD198
:100E500005207047012BFBD0204A136943F00203A1
:100E600013615061136943F040031361D368D907DC
:100E700020D54FF43023D168C80725D4D16849075D
:100E800026D4D268013BD2064CBF03200420002B9D
:100E900008BF052041F6FD71104A13690B4013612C
:100EA0007047013B002B4FF0020008BF0520704740
:100EB00002207047D3685B070DD4D36813F0100F7E
:100EC00014BF03200420E5E7013BD4D10520E1E76E
:100ED0000220013BDBE70220DCE700BF00200240EC
:100EE000304A10B4D368DB0708D4D3685C0743D416
:100EF000D368DB061BD5032010BC70474FF40053AA
:100F0000D468E4070CD4D468640732D4D268D2061B
:100F10000BD50320013B002B08BF052010BC7047F8
:100F2000013BEDD1052010BC7047012BFAD01D4AC2
:100F3000136943F0010313610180D368DB071ED5F9
:100F40004FF40053D168C80723D4D168490724D48B
:100F5000D268013BD2064CBF03200420002B08BFFF
:100F6000052041F6FE710F4A10BC13690B40136156
:100F700070470220013BCEE7022010BC7047D368C7
:100F80005C070DD4D36813F0100F14BF03200420A6
:100F9000E7E7013BD6D10520E3E70220013BDDE78F
:100FA0000220DEE70020024030B4CC78E30648BFE0
:100FB0008B7804F00F0548BF1D430B8813F0FF0F1B
:100FC00033D0482C026800F0AD80282C00F033812B
:100FD000D90744BF22F00F022A43990744BF22F0E9
:100FE000F00242EA0512590744BF22F4706242EA55
:100FF0000522190744BF22F4704242EA0532D9069D
:1010000044BF22F4702242EA0542990644BF22F40A
:10101000700242EA0552590644BF22F0706242EA69
:101020000562190600F104810260FF2B48D9482CA3
:10103000426847D1D90505D54FF4807122F00F02DF
:101040002A4301619C0506D54FF4007122F0F0029D
:1010500042EA05120161590506D54FF4806122F478
:10106000706242EA052201611C0506D54FF4006159
:1010700022F4704242EA05320161D90406D54FF4E8
:10108000805122F4702242EA054201619C0406D597
:101090004FF4005122F4700242EA055201615904F2
:1010A00006D54FF4804122F0706242EA0562016188
:1010B0001B0404D54FF4004365F31F7203614260C3
:1010C00030BC7047282C6CD0D90544BF22F00F02E9
:1010D0002A439C0544BF22F0F00242EA051259055A
:1010E00044BF22F4706242EA05221C0544BF22F488
:1010F000704242EA0532D90444BF22F4702242EA27
:1011000005429C0444BF22F4700242EA055259048D
:1011100044BF22F0706242EA05621C04CFD565F339
:101120001F72CCE7D90704D5012122F00F022A4310
:101130000161990705D5022122F0F00242EA051269
:101140000161590705D5042122F4706242EA0522A3
:101150000161190705D5082122F4704242EA0532DF
:101160000161D90605D5102122F4702242EA054218
:101170000161990605D5202122F4700242EA055248
:101180000161590605D5402122F0706242EA0562EC
:10119000016119067FF548AF802165F31F72016177
:1011A00042E7D90505D54FF4807122F00F022A439A
:1011B00041619C0506D54FF4007122F0F00242EA2D
:1011C00005124161590506D54FF4806122F4706221
:1011D00042EA052241611C0506D54FF4006122F464
:1011E000704242EA05324161D90406D54FF480517C
:1011F00022F4702242EA054241619C0406D54FF474
:10120000005122F4700242EA05524161590406D5A8
:101210004FF4804122F0706242EA056241611C0491
:101220007FF54DAF4FF4004365F31F72436146E70E
:1012300065F31F72F8E6D90704D5012122F00F02E9
:101240002A434161990705D5022122F0F00242EAC2
:1012500005124161590705D5042122F4706242EA62
:1012600005224161190705D5082122F4704242EA9E
:1012700005324161D90605D5102122F4702242EAD7
:1012800005424161990605D5202122F4700242EA07
:1012900005524161590605D5402122F0706242EAAB
:1012A0000562416119067FF5BFAE802165F31F72AB
:1012B0004161B9E6806880B2704700BFC06880B203
:1012C000704700BF01617047416170470AB1016119
:1012D00070474161704700BF0028194B00F440126D
:1012E000B4BFDB695B68B2F5401F30B484B21FD075
:1012F000C20214D50322C0F30345AA4023EA020325
:1013000043F0706321B1420D120104FA02F213435B
:101310000B4A0028B4BFD361536030BC7047420D04
:10132000120104FA02F223EA020343F07063E9E7D0
:10133000034D23F070636A6822F070626A60E1E72F
:101340000000014010B40F2401F0FC0303F18043BE
:1013500003F5803301F003019A6889008C4022EA8A
:1013600004029A609A6800FA01F1114310BC996076
:10137000704700BF014B1860704700BFD800424261
:10138000044A936911B118439061704723EA000041
:101390009061704700100240044AD36911B11843AC
:1013A000D061704723EA0000D0617047001002400E
:1013B000274A038890429BB212D002F50062904205
:1013C0000ED0B0F1804F0BD0A2F59832904207D0EA
:1013D00002F58062904203D002F58062904203D110
:1013E0004A8823F0700313431A4A904217D002F53B
:1013F0008062904213D0CA8823F440739BB2134397
:10140000134A30B48D880C8890420380858504850A
:101410000DD10B7A0386012330BC83827047038091
:101420008B8883850B8803850123838270470A4B51
:101430009842EED003F540639842EAD003F580630A
:101440009842E6D003F580639842E2D0E3E700BF1C
:10145000002C01400010004000340140028CF0B428
:1014600022F001021204120C0D890284038C4E88B2
:1014700023F0020382881B04048B35431B0C2B438F
:1014800024F07304174D0E882404240CA8429BB248
:1014900092B244EA06040FD005F50065A8420BD0CD
:1014A00005F54065A84207D005F58065A84203D040
:1014B00005F58065A8420ED14E898D89CF8923F02C
:1014C0000803334322F440728E883D4323F0040323
:1014D0002A43334392B2C988828004838186F0BC58
:1014E00003847047002C014000234FF6FF72036015
:1014F00042600372704700BF038821B19BB243F082
:1015000001030380704723F001031B041B0C0380BD
:10151000704700BFB0F8443039B16FEA43436FEA17
:1015200053439BB2A0F844307047C3F30E03A0F8B6
:101530004430704783899BB212B11943818170474F
:1015400023EA010181817047038B23F008031B0408
:101550001B0C0B4303837047C94389B20182704758
:1015600010B5012182B00F4C0820FFF709FF0E4B88
:10157000204601A90193FFF717FD01210820FFF77D
:10158000FFFE0A4B204601A90193FFF70DFD2046FF
:101590001021FFF799FE20460821FFF795FE02B0C3
:1015A00010BD00BF000C0140100003100800031024
:1015B00010B50748FFF782FE04460548FFF77EFE98
:1015C000C4F30014030748BF44F00204204610BDD2
:1015D000000C014010B5054C10212046FFF774FEA9
:1015E0002046BDE810400821FFF76EBE000C014008
:1015F00038B5104D6B783BB9044630B142060DD476
:10160000230611D400232B7338BD10210A48FFF79D
:101610005BFE08210848FFF757FEF3E71021064854
:10162000FFF750FE2306EDD508210348FFF74AFED9
:10163000E8E700BFD0140020000C014038B5124D7F
:101640002B78022B0BD0044604F086F86B7833B964
:101650005CB1620604D4230610D400232B7338BD7A
:1016600010210A48FFF72EFEF5E710210748FFF783
:101670002BFE08210548FFF727FEEEE70821034867
:10168000FFF720FEE9E700BFD0140020000C014066
:1016900010B40D4C2346C4F1006101F5FE3104F590
:1016A00080605A18127803F8012B8342F9D123780D
:1016B0000A2B06D04FF48062FF21034810BC08F0CB
:1016C000DBBA10BC704700BF20100020014B185C33
:1016D000704700BF20100020014B1954704700BF15
:1016E000201000202DE9F8430746002A3CD00023B3
:1016F000DFF88880441E44448E1811F8015B63BBF8
:1017000005EBD313B142DBB204F8015FF5D1174406
:10171000174808F80730FFF77BFB04281BD14FF66A
:10172000FF77144C144EA51E04F58069A6EB08063D
:1017300034F8041C7019B94201D0FFF7D1FB298895
:101740003019B94205F1040504F1040401D0FFF792
:10175000C7FBA145ECD1BDE8F8836B1CB14204F88E
:10176000015FDBB2C9D1D2E71346DFF81080CFE7C3
:1017700000FC010824100020FEFB010820100020BE
:10178000F0B4F2B10024104F4D1E3D44861815F8F8
:10179000013F74B900F8013B03EBD414B042E4B24A
:1017A000F5D11144785C001BB0FA80F0F0BC400920
:1017B000704700F8013B864203F10103DCB2E6D139
:1017C000EFE71446004FEDE720100020002108B598
:1017D0005C22074808F050FA0020064905F0BAF8E4
:1017E00000B108BD0720BDE8084003F0D1BF00BF2D
:1017F00020140020501400200149024806F030BF98
:10180000FC1400203C1400202DE9F04F0646C64F82
:101810005022002138469BB008F02EFAC34B03CB70
:101820001A889B78C7F80100C7F80510A7F80920A7
:10183000FB7296F800A0BAF1240F00F0D2810022CA
:101840008DF84320BAF1000F00F019850A924FF08D
:101850000008C346CDE90788DFF8D492CDF824808C
:10186000CDF81880AAF14105EBB2192B00F2AC8338
:10187000531C304611AA0DF143018DF8433002F09C
:101880004FF9002800F0A283DDF844804046FFF7BE
:1018900003FAC4B22046FEF7A9FF01464046FEF710
:1018A000EFFE4946FEF7F6FF08F00AFBBAF1470FD4
:1018B00082B275D0BAF14D0F38D1002A40F0A08322
:1018C0001E2C2ED8DFE814F08201820182017601FD
:1018D000760176012D006301630163012D002D0067
:1018E0002D002D002D002D002D002D002D002D0090
:1018F0002D002D002D002D002D002D002D002D0080
:101900002D002D008201089B002B40F0F986262C2B
:101910007C7040F0A783A2F114039BB21E2B40F20F
:101920007983142420461BB0BDE8F08F192DF8D818
:1019300001A353F825F000BF9D1C0008C31C00083C
:101940002319000823190008231900084F1D000857
:101950002319000823190008271D00083B1D000853
:10196000D71C0008EB1C000823190008F51C000810
:10197000231900081D1D000823190008811D0008F7
:101980008B1D0008971D0008231900082319000863
:1019900023190008B11D0008591D00086D1D00081D
:1019A0005E2CBED801A353F824F000BF071900082D
:1019B000071900080719000807190008071C000884
:1019C0002319000823190008231900082319000807
:1019D00023190008191C00082319000823190008FE
:1019E00023190008231900082319000823190008E7
:1019F000751C0008751C0008751C00084B1C0008AD
:101A00004B1C00082319000823190008231900089B
:101A1000231900082319000823190008191C0008BD
:101A200023190008191C00082319000823190008AD
:101A30002319000823190008231900082319000896
:101A4000231900080719000823190008351B00088E
:101A50002319000823190008551C00082319000841
:101A60002319000823190008231900082319000866
:101A7000551C000823190008231900082319000821
:101A8000071C0008431C0008431C0008431C0008F6
:101A9000431C0008431C0008431C000823190008CD
:101AA000931C0008231900082319000823190008B3
:101AB0002319000823190008231900082319000816
:101AC0002319000823190008231900082319000806
:101AD00023190008231900082319000823190008F6
:101AE0002319000823190008231900087D1C000889
:101AF00023190008231900082319000823190008D6
:101B000023190008231900082319000823190008C5
:101B100023190008851C0008851C0008191C0008F2
:101B2000FD1B0008FD1B00087C1400202014002071
:101B30000000C8420723002A40F062824BFA03F2F9
:101B4000D00700F18882012202FA03F343EA0B0B6B
:101B50001FFA8BFB9DF8432016F802A0BAF1000F84
:101B60007FF480AECDF82CB0DDE9068323B1089B6D
:101B7000002B08BF0223089318F0200F00F02A81E1
:101B8000924BBA6A9A4240F325811B24CAE6082C7C
:101B900000F03082092C40F0278200234FF40052DD
:101BA0007B720D234BFA03F3D90700F1548242EA0A
:101BB0000B0BCFE7042C00F01182052C40F00882BB
:101BC00000234FF48052BB720C23EBE7002C00F093
:101BD000F581012C00F0F6804FF400620B233C727B
:101BE000E0E70022012196F803A0BA707970032281
:101BF000BAF1000F00F07E840A9128E6C4F15E0479
:101C00000523BC7097E71C2C3C7000F0CB811E2C88
:101C100000F0C88100238EE7002A40F0BC81089BB9
:101C2000002B40F06D851C2C3C7004D01E2C02D083
:101C30005C2C40F03B85012308932044002338703E
:101C40007CE7363C0923FC7175E7C4F115040623D3
:101C5000FC7070E7089B002B40F05285312C00F09F
:101C6000FC810A2A7FF45DAE0122BA7103220823A7
:101C7000089263E7113C02237C715CE750237B7080
:101C8000012358E7002A40F0BD815A3C03233C71F0
:101C900054E7002A7FF445AE0A234FE7079B4FF431
:101CA000005443F0080307930D23C7F84880069AB1
:101CB00042FA03F3D80700F17C81069B2343069385
:101CC00048E7079B4FF4804443F010030793C7F89D
:101CD0004C800E23EBE7099B082443F00402D3B2A7
:101CE0000993C7F818800323E1E787F82440042309
:101CF0001024DCE74046FEF7A9FF20240522B86245
:101D0000069B43FA02F2D10700F1538140460021BD
:101D1000FEF75EFF0028D0D0042403E6402406220C
:101D2000C7F82C80ECE7099B022443F00102D3B2F0
:101D30000993C7F810800123B9E7099B042443F0F5
:101D40000202D3B20993C7F814800223AFE701243B
:101D50000022C7F80C80D3E7079B4FF4006443F0E0
:101D600002030793C7F840800B23A0E7079B4FF4BB
:101D7000805443F004030793C7F844800C2396E78C
:101D800080240723C7F8308091E74FF4807408223D
:101D9000C7F83480B4E740460D49FEF737FF002806
:101DA00040F01F8687F8384009224FF40074A7E7F7
:101DB000079B4FF4806443F001030793C7F83C800E
:101DC0000A2374E74FF400620B23EBE68096980039
:101DD00000007F430A9B002B00F02C8118F0010FBC
:101DE00000F08883FB78012B04D1F868A849FEF73E
:101DF00051FDF86018F4807F02D1A64BDB687B634D
:101E00003C78042C00F03B8197F80590B9F1000F65
:101E100000F08281B9F1010F40F028814FF0020AF1
:101E20000025CB460526D1460695FB78012B00F010
:101E30003F81089B032B00F06581DFF870E20DF114
:101E4000540CBEE80F00ACE80F00DEF80030CCF810
:101E500000300B9B9B050ED5F879062800F22982ED
:101E60008C4B9B79834206D015A904F073FD0028A2
:101E700000F026843C780A2C00F0AF815C2C00F046
:101E80005281089B032B3AD0079A002A37D0814908
:101E90003B79886D0C90002B00F0D984D00740F17D
:101EA0008A85352C00F00F847A4BF96BD869FEF7E0
:101EB000E9FB079BF8639B0700F18485754B1B6A60
:101EC0003B64079B590740F10684724B796C586A52
:101ED000FEF7D8FB079B78641B0740F162856D4BCA
:101EE000B96C986AFEF7CEFB079BB864D90640F13F
:101EF0003E85684BF96CD86AFEF7C4FBF8641E2C6B
:101F000000F04884352C00F0F4831C2C00F0D283C0
:101F10007C78502C40F0F183079B002B40F01C850F
:101F20000A9A0C93002A00F0A38128F021081FFAD6
:101F300088F3089919B123F4F8481FFA88F3002BA5
:101F400040F0A981CDE912331493002A00F0BC813E
:101F50000B9B23F04903002B40F0F8833B78352B93
:101F600002D0002B40F0F2834A4A12A8117A537A29
:101F7000D2680B4348498DF85030139200F090FE20
:101F8000044600287FF4CEAC444E454D0FCE0FC51D
:101F900033682B60C6E41C2C3C7006D01E2C04D089
:101FA0005C2C2DD1002A3FF448AE0A2A3FF445AEFE
:101FB000B7E4192420461BB0BDE8F08F03234FF48B
:101FC00000623B720B23EDE50124ABE40224A9E49B
:101FD00010234FF48052BB720C23E3E520234FF40F
:101FE0008052BB720C23DDE580234FF400527B72DC
:101FF0000D23D7E540234FF400527B720D23D1E52A
:1020000017248FE40A2A7FF48CAC5A2C3FF489AC55
:10201000042393E5234921FA03F3DC077FF581AC20
:1020200021490123A1FB0212D208763A7A700222DA
:10203000089283E5BB78012B00F03081154A537874
:102040000A93002B40F0188118F0010F7FF4CAAEFC
:102050001369FB60CEE6152464E40322BB71089289
:1020600008236BE502210123089164E502254FF066
:10207000010A0626D1464FF0000B0695D5E618F06A
:10208000400F00F0228228F040081FFA88F8BBE6D3
:102090003333CB41201400207C140020B8140020DE
:1020A0003C14002001041040CDCCCCCC50140020B6
:1020B000079BDA0704D5F86B7F49FEF7EBFBF86363
:1020C000079B9B0704D5386C7B49FEF7E3FB38641C
:1020D000079B580704D5786C7749FEF7DBFB7864DB
:1020E000079B190704D5B86C7349FEF7D3FBB86496
:1020F000079BDA067FF59DAEF86C6F49FEF7CAFBC9
:10210000F86496E6BB79012B7FF497AE079B042B0E
:102110003FF493AE252405E401250326CA464FF07B
:10212000020B069581E6079B002B00F0D181634AE4
:10213000D807946D40F1B6821599F86BFEF7A2FAB4
:102140005E4B0146D869FEF79BFAF863079B990737
:1021500040F1D9821699386CFEF794FA574B014634
:10216000186AFEF78DFA3864079B5A0740F1B3816D
:102170001799786CFEF786FA504B0146586AFEF7BD
:102180007FFA2146FEF77CFA7864079B1B0740F133
:1021900010831899B86CFEF775FA484B0146986A97
:1021A000FEF76EFAB864079BDC0640F19383F96C86
:1021B0001998FEF767FA414B0146D86AFEF760FAB4
:1021C000F86400230C937C78502C00F0C583089BA6
:1021D000022B00F0A1810A9AA4E6079B002B00F0D5
:1021E000778118F0500F00F07081F86AFEF754FD07
:1021F000C3B2062B5DD897F82420142A06D0022AF1
:102200007FF48FAB18F0800F7FF48BAB28F0500871
:102210001FFA88F8002B00F05983013BDBB2184607
:102220000C93274904F096FB002800F0498297F8A8
:102230002430224A142B946D079B00F01784D80792
:1022400044BFFB6B3B61079B990744BF3B6C7B61C1
:10225000079B5A0744BF7B6CBB61079B1B0744BFAE
:10226000BB6CFB61079BDC06ADD5FB6C3B62AAE750
:10227000144B08EA03035CE600230A93BAE5BA7834
:10228000012A00F04682D046CDE907AACDF824A065
:10229000CDF82CA0D2E62424FFF744BB089B022BE8
:1022A00000F01D81DDF824A00023CDF824A00A93BE
:1022B000A0E51D24FFF736BB3333CB4120140020AB
:1022C0008C140020DEFCFFFF8C4B93F868309807DD
:1022D00000F125828A4B5C7A0A9B03F0400588490D
:1022E000BA6ABB788A614B7013B108238DF85030FD
:1022F000834AFB68D2F80C80D7F834A04046514698
:1023000013611293FEF75AFC002800F0B6810A9B75
:102310009B0600F1B281C246EEB2002E00F02E8282
:10232000B87A97F83830764DA0422B7504D01399BF
:1023300004F024FEBC7A6C72714B9DF850201B7A1D
:10234000787A144383428DF8504040F002821C4357
:102350003B788DF85040042B00F01183FB786849DE
:102360007A798B70089B0A71032B00F05D82644BB5
:10237000FE799B79B34209D0624D15AC0FCC0FC5E5
:10238000236805F83A6C2B6006F060F93B783A79DF
:102390005B49282BCA7000F28780092B25D90A3B9C
:1023A0001E2B22D8DFE803F0102121212121212139
:1023B000212121212121212121216B216B21212179
:1023C00021212121662161000C9C4F49204604F007
:1023D000E3F94B4B9B79A34207D14B4D494C0FCDB1
:1023E0000FC42B68236006F031F97B78444A502BE8
:1023F000137003D0089A022A00F08F823C7A404B77
:10240000DC71002C3FF48EAA03F0A6F93C4BDB797B
:10241000032B00F086830122002446F264406421ED
:10242000374D3A4B2A801A782C71022AEC70AC7125
:102430002C811881997210D0204605F1300104F0EA
:1024400089FA002800F03C8106F000F920460021BE
:1024500004F008FD2046FFF7CBF8082003F0C6F98A
:102460000024274BDC71FFF75DBA0720284904F0F0
:1024700093F9BAE70620264904F08EF9B5E79DF8EE
:10248000503043F001038DF85030089B002B40F092
:1024900053831D4D1E4C1C4812A901F08FF80FCD1F
:1024A0000FC42B682360A0E75C2B00F0AF82662B83
:1024B0009BD10023174A1360C2E90133C2E90333F9
:1024C000A2F1440106F0C2F88FE71C24FFF72ABAF4
:1024D0001A24FFF727BA0A4BDB6C7B6455E67B783E
:1024E000502B3FF487AC002B3FF484AC18F0010F65
:1024F0007FF480AC1624FFF715BA00BF94160020B5
:1025000020140020501400208C140020D01400202F
:102510003C14002064140020002C00F032810021C3
:10252000F868FEF74BFB0028E4D1032C0BD000F237
:102530004481012C00F02581022C7FF44CAE0A9BD3
:1025400043F004030A93079B002BC1D0334200F0F1
:102550007283A14B07EB8A0203EB8A03D969D06B24
:10256000FEF78EF804469C4B07EB850203EB8503D0
:10257000D969D06B0D94FEF783F818F080030446F8
:1025800000F0E38214229549954807F067FB002884
:1025900000F01E83FB78012B04D1386B9149FEF7C4
:1025A00079F93863396B0846FEF774F94FF08141C9
:1025B000FEF770F90D9906460846FEF76BF92146BD
:1025C00009902046FEF766F9099B01461846FEF77A
:1025D00059F801463046FEF753F800210646FEF74B
:1025E000F7FA002840F02A83304607F0CDFC214658
:1025F00006460D9801F070FB014606F10040FEF71B
:10260000FDF97B780646032B3B6B08BF00F10046C3
:10261000002118460993FEF7DBFA28B1099B06F161
:10262000004603F100433B630AF1020321463046B2
:1026300007EB830AFEF72EF901460D98FEF720F806
:102640004FF07C51FEF726F90D99CAF80800304684
:10265000FEF720F92146FEF715F84FF07C51FEF702
:1026600019F902350A9B28F0800807EB85051FFA47
:1026700088F803F00102A86054E4002C47D00A9BBC
:102680001E0644D405F0FF06002D6DD02046002123
:1026900004F074FC504BD7F834A05C7A4E4BC3F86E
:1026A0000CA03AE64C4B5B6CFB634FE501220892B1
:1026B000FFF744BA06204C4904F04CF900286FD1CA
:1026C0000724FFF72FB9079B9A0740F15C81079B0E
:1026D0005B0700F16281404B5B6A7B64079B1A07D2
:1026E00040F15F81352C7FF4FAAB079BDA0640F1AD
:1026F0003E817C78012C00F23F8100230C9366E53B
:102700001824FFF70FB9344B9B6C3B642CE5EEB2F9
:10271000C4E7D046CDE907AACDF82CA0C4E57B7864
:10272000013B022B03D90A9B43F040030A93079B0A
:102730001BB1089B022B00F0EA81274B5C7A102C1E
:1027400000F052810A9B03F04005C8E51024FFF712
:10275000E9B8FEF773FF7B7A002B40F000811E4A38
:102760009DF850401372F3E55146204604F006FCF4
:10277000194BD7F834A05C7AC3F80CA0CDF84CA064
:10278000CEE5079B0A9A002B089B08BF00230893FD
:10279000FFF7C8BB0720144904F0DCF800288FD0ED
:1027A000079B002B40F09A800A9A0C930893FFF73E
:1027B000B9BB094B1B6DBB64F5E404F17403DBB2D8
:1027C000032B3FF608ADA4F18C03032B3FF603ADBA
:1027D000DFE803F0100C100C20140020B8140020C7
:1027E0003C1400203333CB418C1400200A9B43F06F
:1027F00010030A9304F17203DBB2012B03D80A9B86
:1028000043F008030A93079B002B3FF461AE1422A8
:102810009249934807F022FA002800F0D9810A9BD8
:1028200003F00102FFF77EBBBB794B71002B00F078
:10283000D4807C6C8B4B2146986DFEF7BFF9002845
:102840007FF495AD874B9C6505F000FF8FE513463F
:10285000DA0700F1F580834BDB69FB63079B9B077D
:1028600000F1E1807F4B1B6A3B64079B580740F1F6
:10287000D080352C00F04381796C1798FDF702FF6A
:10288000784BD96CFDF7FEFE0C99FDF7FBFE079B1C
:102890007864190740F13781B96C1898FDF7F2FE9A
:1028A000704B196DFDF7EEFEB864079BDB065ED535
:1028B000352C3FF41EAF1999F86CFDF7E3FE694B18
:1028C000596DFDF7DFFEF864FFF719BBFB79184679
:1028D0000C93A6E4634B5B6DFB6472E4D80702D4EF
:1028E000604BDB693B61079B990702D45D4B1B6A18
:1028F0007B61079B5A0702D45A4B5B6ABB61079BFB
:102900001B0702D4574B9B6AFB61079BDC063FF514
:1029100058AC544BDB6A3B6253E4012B00F08481DA
:10292000002B00F07481023B012B40F25C819DF88A
:1029300050304A4C43F0040320460A9A12A98DF8FD
:10294000503001F055F8002840F04581444D0FCC3F
:102950000FC523682B6051E51F24FEF7E3BF4149F3
:102960009DF850200C7A1C430C721443F0E43D4B4C
:10297000DB6AFB64FFF7C3BA1E24FEF7D3BFF86A15
:1029800000F0FEFFEAE4374B1B6A3B64079B5807E5
:102990007FF5A1AE352C7FF498AA079B18073FF569
:1029A000A4AE304B9B6ABB64079BD806DFD5352CA1
:1029B0007FF49FAA9DE6CB699207FB63E3D5352C94
:1029C0003FF485AE274B396C186AFDF75BFE079B19
:1029D000386459073FF579AA7DE600231C467B64DD
:1029E00028E72624FEF79EBF1E4B1B78013B022BD7
:1029F0000A9B03F0400500F2A48059067FF56FACF6
:102A000043F020030A9303F0400568E4134D164C8D
:102A1000E5E4144B5B6A7B64079B1A0773D5352C7E
:102A20007FF43AAF41E7352C3FF41FAF396C16986D
:102A3000FDF728FE0B4B996CFDF724FE386414E774
:102A4000352C3FF40BAFF96B1598FDF71BFE054BCA
:102A5000596CFDF717FEF86300E700BFB8140020BB
:102A60003C1400202014002064140020D8070AD54C
:102A7000824BF86B596CFDF705FE804B0146D86917
:102A8000FDF7FEFD3861079B99070AD57B4B386C33
:102A9000996CFDF7F7FD794B0146186AFDF7F0FDDB
:102AA0007861079B5A070DD5744B786CD96CFDF78C
:102AB000E9FD724B0146586AFDF7E2FD2146FDF73C
:102AC000DFFDB861079B1B0709D56C4CB86C216D05
:102AD000FDF7D8FD0146A06AFDF7D2FDF861079B1E
:102AE000DC067FF570AB654CF96C606DFDF7CAFDD7
:102AF0000146E06AFDF7C4FD3862FFF764BB079B3F
:102B00001B073FF5D2AE5D4B9B6ABB64CDE60A9BCB
:102B100043F080030A9303F04005584B5C7AFFF7BB
:102B2000DEBB574B1B78022B3FF49AAC082005F014
:102B300009FE02F049FD93E4524812A900F03EFD5F
:102B4000A7E45A063FF5CBAB5AE7099A324200F0A8
:102B50009280FA7828F00E08012A1FFA88F870D0BF
:102B6000023507EB8505A9682046FDF789FD064675
:102B70000AF1020407EB8404A1680D98FDF780FDBB
:102B8000314601F0A9F80346A968A0681C4601F087
:102B9000A3F80546204629463D63FDF771FD20F068
:102BA000004420463849FEF731F800283FF437AE9C
:102BB0004FF07C512046FEF729F848B933492846A2
:102BC000FDF768FE2146FEF703F800283FF427AE24
:102BD0002124FEF7A7BE01287FF410AC2C492D4814
:102BE00005F03EFD0AE40A9B264CC3F38003CDE9C1
:102BF00003B3284D069B3E6BCDE901932A46204640
:102C000012A9A4F12C03009600F00EFD9FE69DF89A
:102C100050301C4C43F00103204612A98DF850306F
:102C20001C4D00F0CBFC92E6164C12A9204600F099
:102C3000C5FC184D8BE62024FEF774BE2224FEF757
:102C400071BE1E46144B0E951C4605461349099B42
:102C5000334113F0010F06F1010605D020690F91F1
:102C6000FDF718FE0F992061052E04F10404EED142
:102C70002C460E9D74E72324FEF754BE201400203A
:102C8000D0140020B81400200AD7A33B6F12833A57
:102C9000FC1400203C1400207C1400203333CB4172
:102CA00070B505460B46027AC86842F00402134923
:102CB00028602A7291F8682003F13C04930603D53A
:102CC000204605F0FBFCA8B90D4E2046294600F031
:102CD00075FC347814B10024204670BD01F036FA3A
:102CE0000028F8D02023337004F06EFD04F0FEF9C4
:102CF000204670BD0F24204670BD00BF94160020F2
:102D0000D014002010B5012184B00920FEF738FB53
:102D1000224C234B694623480093FEF745F994F86B
:102D200068301B0706D44FF480721F4BC3F8842011
:102D300004B010BD642000F0BFFF0C210120FEF79D
:102D400001FB0D210120FEF7FDFA0E210120FEF707
:102D5000F9FA0F210120FEF7F5FA0B210120FEF709
:102D6000F1FA94F868304FF4784113F0400F14BF33
:102D700008240C240022012302A802918DF80C20C3
:102D80008DF80E308DF80D40FDF7E2FF074B01A8DE
:102D90000193FDF7ABFF04B010BD00BF94160020F7
:102DA00000F80348000C014000E100E028020201A5
:102DB0004FF48072014BC3F88420704700E100E0BB
:102DC00008B51548FEF776FA0346144A92F86820CB
:102DD00052065CBF80F478439BB2D3B1104A10888E
:102DE0005188034214BF012000200B42918818BF74
:102DF00040F002000B42D188128918BF40F0040055
:102E00000B4218BF40F00800134201D040F0100000
:102E100008BD184608BD00BF000C014094160020F4
:102E200090B0000808B54FF48050FDF7D1FF00289E
:102E30003BD14FF40050FDF7CBFF88BB4FF48040EF
:102E4000FDF7C6FF38BB4FF40040FDF7C1FFE8B9FE
:102E50004FF40060FDF7BCFF98B94FF48071154A3C
:102E6000154BC2F884111B78012B02D0134B1B7831
:102E700003B108BD00F024FEBDE80840012005F0C4
:102E800075BC4FF40060FDF7B1FFE6E74FF400407A
:102E9000FDF7ACFFDCE74FF48040FDF7A7FFD2E77A
:102EA0004FF40050FDF7A2FFC8E74FF48050FDF744
:102EB0009DFFBEE700E100E0D014002010150020C7
:102EC0002DE9F04FDFF8608297B098F80130049058
:102ED00013B117B0BDE8F08F064606258C4C0BAA3F
:102EE00020686168248903C2CDE90F330E9316F080
:102EF000010314808DF8405006F00104099300F09E
:102F00003982844F8449F86BFDF7C4FC0021834665
:102F1000FDF772FE002800F03982049BC3F34002E3
:102F200007929A070BD57C49386CFDF7B3FC054630
:102F300058462946FDF760FE002800F02582049BD4
:102F4000C3F380025B0706920BD57349786CFDF7DB
:102F5000A1FC054658462946FDF74EFE002800F024
:102F60001182049BC3F3C0021E0705920BD56A4968
:102F7000B86CFDF78FFC054658462946FDF73CFE28
:102F8000002800F0FD81049BC3F30012DD060892C7
:102F90000BD56149F86CFDF77DFC0546584629467E
:102FA000FDF72AFE002800F0E981E3B20193042333
:102FB0003A6F029301255B469346DFF864A1574EB2
:102FC000DFF86891564911A8039305F049FB019A6F
:102FD000039B002A00F051810021B7F86A20CAF84B
:102FE0000010D00740F16481002D40F064811193FE
:102FF0000222BDF82C400198079979B10020B7F85A
:103000006A10CAF80400890740F14B81002D40F096
:103010004B8112931046BDF82E100C43069A82B1D4
:103020000021B7F86A2001305207C0B2CAF8081070
:1030300040F14581002D40F045811393BDF83020CB
:103040001443059A82B10021B7F86A200130CAF80A
:103050000C101107C0B240F11D81002D40F01D8100
:103060001493BDF832201443089A82B10021B7F8B6
:103070006A200130D206C0B2CAF8101000F10681F1
:103080000DB903F100431593BDF834301C43FDF72F
:10309000A9FB06F079FF5946A8F80640FDF7FAFBB0
:1030A00003460EA911A80E9301F04AF9042388F8EB
:1030B000043004F089FB04F019F8DFF874B0002D37
:1030C00038D104F081FB337813F0340F40F089805D
:1030D00040F20F231C42F2D104F036FAB7F8740024
:1030E00000F0EAFD85F00104002D40F0CA80BD6FBC
:1030F0000C492846FDF7CEFB0346D7F86CB0029A80
:10310000013A12F0FF02029200F0E080254659E7F2
:103110009CB00008941600200000C0BFE5140020F9
:10312000FC1400200000A040D014002090B0000843
:10313000000C01405846FEF7BDF897F868305B0672
:103140005CBF80F4784080B200285ED0B9F80030CF
:10315000B9F80220184214BF012300231042B9F825
:10316000042018BF43F002031042B9F8062018BF2C
:1031700043F004031042B9F8082018BF43F00803D5
:103180001042BDF82C2018BF43F01003144202D0A7
:10319000D80748BF9443BDF82E20144202D09907A7
:1031A00048BF9443BDF83020144202D0580748BFAE
:1031B0009443BDF83220144203D0190701D524EA04
:1031C0000204BDF83420144202D01B0918BF9443F6
:1031D000A8F8064004F0F8FA337813F0340F3FF4FF
:1031E00077AF3378D806DCB200F1C080A1060ED4E8
:1031F00095B1630700F1FE80834B1B78002B40F0F4
:10320000FD80042005F0A8FA66E70346D9E7072009
:1032100005F0ACFA002DECD17C48FEF74BF897F89E
:1032200068305A065CBF80F4784080B20028E3D052
:10323000B9F80030B9F80220184214BF0123002366
:103240001042B9F8042018BF43F002031042B9F845
:10325000062018BF43F004031042B9F8082018BF35
:1032600043F008031042049A18BF43F010031A42B7
:10327000C2D0082005F07AFABEE7144610460122B3
:10328000BAE6BB6FD7F870B01D4638E7002D7FF463
:10329000F8AEF8E6002D7FF4E3AE03F1004214929D
:1032A000DFE6002D7FF4B5AE03F100411291B1E6E7
:1032B000002D7FF49CAE03F10042119298E6002DA0
:1032C0007FF4BBAE03F100421392B7E6099BB7F857
:1032D0006A406BB1E30740F18480F96B2846FDF743
:1032E000D1F93968FDF7D6FA06F0EAFDCAF8000010
:1032F000079B5BB1A6076AD428467968FDF7CAFA2E
:1033000000F1004006F0DCFDCAF80400069B5BB14A
:10331000600752D42846B968FDF7BCFA00F10040B6
:1033200006F0CEFDCAF80800059B5BB121073AD430
:103330002846F968FDF7AEFA00F1004006F0C0FD3E
:10334000CAF80C00089B5BB1E20622D42846396912
:10335000FDF7A0FA00F1004006F0B2FDCAF8100037
:10336000002388F8043017B0BDE8F08F062005F080
:10337000FDF93BE74FF0000B254FCEE5AB4614E6D9
:10338000AB4600E6AB46ECE5AB46D8E54FF0000BAC
:10339000C3E5F96C2846FDF775F93969FDF77AFA46
:1033A00006F08EFDDAE7B96C2846FDF76BF9F9688F
:1033B000FDF770FA06F084FDC2E7796C2846FDF748
:1033C00061F9B968FDF766FA06F07AFDAAE7396C8B
:1033D0002846FDF757F97968FDF75CFA06F070FDAD
:1033E00092E728463968FDF755FA00F1004006F0EB
:1033F00067FD7BE7092005F0B9F9FDE600F060FB09
:1034000002F0E2F865E500BF10150020000C014055
:103410009416002010B505F051F978B101230C4C39
:103420002078E37008280AD105F08CF901E02378B0
:103430002BB102F0C9F86378002BF8D010BD00F072
:103440003FFB022005F092F9BDE8104002F0BCB845
:10345000D01400202DE9F04F012183B01020FDF79A
:103460008FFF354B354801A90193FDF79DFD06F00F
:1034700017F906F021F905F0C1FEFDF7BDFCFEF7D6
:1034800007F92F492F4E0A68002422F004020A602F
:1034900003F04AF803F0DCFB04F0DCF804F088FEEB
:1034A00000222948294990F868003270C306C1E912
:1034B0000022C1E902220A6148BF012246F2644BA0
:1034C0004FF0640A224DDFF89890DFF89880214F82
:1034D00048BF3270204B317889F8004088F80040AE
:1034E0003C701C701D4BB4601C703460C5E9004416
:1034F0003170C5E902447460F4603461A6F808B024
:1035000086F80AA02C6103F027F9FEF75FF903F0B3
:10351000B9FBFEF725F8FFF7F5FB01F0CFFC00F053
:10352000D1FD04F011F801F0B1F9FEF765F902F0F0
:10353000BBF902F057F8CDE700200210001001405F
:1035400010E000E0D014002094160020FC140020AD
:10355000E814002010150020CC140020E4140020F2
:10356000E6140020E514002042F22831094B30B463
:10357000002501241A4601FB00F159609D601C6082
:10358000136803F00113012BFAD030BC0023136041
:103590009360704710E000E010B5064C4FF4005106
:1035A00022780548FDF792FE2378013B18BF0123DE
:1035B000237010BD0000002000100140F8B5174E28
:1035C0000F4696F8683005469906154C04D52378C1
:1035D000202B0AD0FFF71EFF2378022B05D1F8BD60
:1035E00000F0E2FD38B101F0D5FC01F0EDFF6378A9
:1035F000002BF5D0F3E72846394600F0A1FE00285D
:10360000EDD196F868309A07E9D53B7ADB06E6D526
:1036100079681020BDE8F84003F0B0BC9416002093
:10362000D0140020000000002DE9F04F8FB09DF86D
:1036300064701D4653F8279004460D908B4648460B
:1036400052F827109246FDF71DF89DF86860029029
:1036500055F826305AF8261018460893FDF712F848
:1036600054F826100590FDF70BF854F82710804603
:103670000298FDF705F8044648462146CDF8249007
:10368000FDF708F9414681460898FDF703F9014620
:103690004846FCF7F7FF0346414609989846FDF770
:1036A000F9F8214604460898FDF7F4F8014620464B
:1036B000FCF7E6FF414606F065FC0AEB8702039241
:1036C00005EB87020A929DF8703005EB86020B929B
:1036D0000AEB86020446189D9DF86C800492002B2C
:1036E00000F00381FCF798FE9BA3D3E90023064674
:1036F0000F46FCF75DFF002840F01D819C4B2946DA
:10370000DE6D2846FCF7BEFF3146FCF7B9FF3146B7
:10371000FDF7C0F806F038FC03464FF07C51284610
:103720001D46FDF7B7F82146FDF7B4F8294620F00D
:103730000040FDF763F906F081FBFDF7ADFA83B2B7
:103740000193002B00F0CA809BF8086018463307ED
:1037500000F1E280FDF74AF8054629464FF07E5019
:10376000FDF74CF9054620462946FDF793F8034638
:103770000D9A5AF8281052F828001E460C93FCF7B0
:103780007FFF2946FDF786F8314681463046FDF732
:1037900081F804464FF080402146FCF771FF034654
:1037A000214674481C46FCF76BFF734905463046BA
:1037B000FDF770F801462846FDF76CF803464FF018
:1037C0007C5120460693FDF765F8019B0AEB8808BB
:1037D000012B079000F08280099B012603F1004431
:1037E000089B002703F1004540E021460698FDF7BD
:1037F00051F8294608900798FDF74CF8089B0146B8
:103800001846FCF73FFF0346214607981C46FDF784
:1038100041F8294605460698FDF73CF8014628463A
:10382000FCF72EFF254604460137FFB202992046D9
:10383000FCF728FF039B059918602846FCF722FF38
:10384000049B49461860D8F80000FCF71BFF594656
:10385000C8F800005046FFF7B1FE484B01365B78D0
:10386000B2B2002B72D1019B934237D90B2FBCD936
:103870003046FCF7BBFF0C99FDF70CF8044606F048
:10388000A9FA0546204606F047FB0A9B04461F6836
:10389000294607F100473846FCF7FCFF0B9B214601
:1038A0001B68099018460893FCF7F4FF099A014633
:1038B0001046FCF7E7FE0246214638461446FCF760
:1038C000E9FF089B294605461846FCF7E3FF014639
:1038D0002846FCF7D5FE00270546A7E759460D9870
:1038E0000FB0BDE8F04FFFF769BEFCF795FD1CA3D4
:1038F000D3E9002306460F46FCF750FE00283FF4AC
:10390000FDAE19A3D3E9002330463946FCF726FC67
:10391000FCF762FE0446F1E6FCF768FF0546DBF8BB
:1039200000002946FCF7B6FF26F00806CBF8000099
:103930008BF8086011E70CA3D3E900233046394621
:10394000FCF70AFCFCF748FE0446D7E60FB0BDE8DA
:10395000F08F00BFAFF300808DEDB5A0F7C6A0BE1D
:103960008DEDB5A0F7C6A03E182D4454FB2119409B
:10397000941600200000C040ABAA2A3ED0140020BC
:10398000074B1B78022B09D010B5044601F0E4FE6A
:103990002046BDE81040002100F056B9704700BF36
:1039A000D014002008B5FFF703FA0420FFF788FAC7
:1039B0000320FFF785FA1820FFF782FA01F004FED2
:1039C000094B5B7803B108BDFDF716FF00F05EFF01
:1039D0004FF47840FDF70AFA4FF48072034BC3F8B6
:1039E00084215A6008BD00BFD014002000E100E02F
:1039F0002DE9F0412E4C2378022B27D007460D46A7
:103A0000164601F0A9FE94F80180B8F1000F1AD112
:103A1000C6F3C00084F8058001F072FA01F084FA60
:103A200080BB29463846FFF7C9FD0123214D0220FE
:103A30002B7004F087FE01E0237853B101F0C4FD40
:103A40006378002BF8D00220BDE8F0810020BDE8AB
:103A5000F0812B78012B1ED0012363710020287088
:103A600001F04EFA01F0B0FD03F06EFD00F02AFB0C
:103A700000F00CFF02F012F96079003818BF012045
:103A8000BDE8F081042004F071FE01F09DFD404688
:103A900001F036FAD7E7F30606D5074F074E0FCFEA
:103AA0000FC63B683360D9E7052004F05FFED5E719
:103AB000D0140020E6140020FC140020E81400209C
:103AC00008B5144B1B78DB0600D508BD102004F0A8
:103AD00039FE03F067F9FDF77DFD0F4B1A781B796E
:103AE00002F02C0103F006030B43EED0042A06D1AA
:103AF0000A4B1B7853B1BDE8084003F037BB0320E5
:103B000004F034FEBDE8084003F030BB062004F0AA
:103B10002DFEF0E7E5140020D01400201015002041
:103B20002DE9F04F0E4609780546435C17462D2BCC
:103B300083B0014467D02B2B20D0002201F1010972
:103B4000019200221446924610460EE00134E4B27F
:103B5000082C19D81AB10AF1FF3A4FFA8AFA00EB89
:103B6000800003EB400019F8013B303BDBB2092B2E
:103B7000ECD9FE2B0FD172B90122F4E7002301F139
:103B8000020901934B78DCE7002AECD10AF1010A23
:103B90004FFA8AFAE7E794B3FCF724FE0021834644
:103BA000FDF70CF8F8B9BAF1FF3F16DA5446DFF822
:103BB000948058464146FCF76DFE023464B2631CA3
:103BC0008346F6DB5FFA8AFACAF1FE0303F0FE03CE
:103BD0009A440AF1020A4FFA8AFABAF1FF3F26D054
:103BE000BAF1000F15D1019B13B10BF100408346D0
:103BF0000124A9EB0505013DC7F800B0357020464A
:103C000003B0BDE8F08F01224B7801F10209019267
:103C100097E70A4C58462146FCF73CFE0AF1FF3371
:103C200013F0FF0F83464FFA83FAF3D1DBE75846D0
:103C30000349FCF72FFE8346D5E700BF0000204173
:103C4000CDCCCC3D0AD7233C70B50D461849FCF7C6
:103C500021FE06F07FF8FDF71FF880B2A8B1441EE0
:103C6000A4B29DB14FF6FF76124D0BE001F09CF926
:103C7000AB789B0709D4013C3220A4B2FFF774FC57
:103C8000B44202D06B78002BF0D070BD4FF6FF76B7
:103C9000084D08E0013C01F097FCA4B23220FFF788
:103CA00063FCB442F1D06B78002BF3D070BD00BF41
:103CB0000000A041D014002060B138B54FF6FF7568
:103CC000441EA4B2013C0120A4B2FFF74DFCAC425B
:103CD000F8D138BD704700BF10B50C460146FCF75F
:103CE000D9FD214604460846FCF7D4FD014620468E
:103CF000FCF7C8FCBDE8104006F046B9F8B5076807
:103D0000044600213846FCF759FF002865D13946A2
:103D10003846FCF7BFFD0546666800213046FCF7D3
:103D20004DFF40B931463046FCF7B4FD0146284608
:103D3000FCF7A8FC0546A66800213046FCF73EFFCC
:103D400040B931463046FCF7A5FD01462846FCF750
:103D500099FC0546E66800213046FCF72FFF40B984
:103D600031463046FCF796FD01462846FCF78AFCB2
:103D70000546266900213046FCF720FF40B9314650
:103D80003046FCF787FD01462846FCF77BFC0546DC
:103D9000284606F0F9F806464FF07E503146FCF70B
:103DA0002DFE39460546FCF775FD29462060606802
:103DB000FCF770FD29466060A068FCF76BFD2946A2
:103DC000A060E068FCF766FD2946E0602069FCF72A
:103DD00061FD034630462361F8BD3D469CE700BFC8
:103DE000F8B50D680C46064600212846FCF7E6FEAD
:103DF000002855D129463068FCF700FE20F0004528
:103E000028462849FCF7EEFE002849D067680021C3
:103E10003846FCF7D3FE58B939467068FCF7EEFD1A
:103E200020F0004739462846FCF7DCFE00B93D4645
:103E3000A76800213846FCF7C1FE58B93946B0687A
:103E4000FCF7DCFD20F0004739462846FCF7CAFEA7
:103E500000B93D46E76800213846FCF7AFFE58B987
:103E60003946F068FCF7CAFD20F00047394628467D
:103E7000FCF7B8FE00B93D46246900212046FCF756
:103E80009DFE58B921463069FCF7B8FD20F000448A
:103E900021462846FCF7A6FE00B925462846F8BD6F
:103EA000004DB3E7FFFF7F7F2DE9F04F804B83B0DC
:103EB0001B780093002B00F0BA807E4A03F1FF3894
:103EC00015785FFA88F84545019200F0AD807A4E8A
:103ED000C8EB081406EB8404A16A606AFCF7DAFCFC
:103EE0000146FCF7CFFBD4F820B081465946FCF7D9
:103EF00079FE04F11C03002800F0CB804FF0230B67
:103F0000C3F80090B8F1000F40F0CC805D4500F0A0
:103F1000AC80DFF8AC912AE099F800305FFA81FBC1
:103F20005B4535D0C7EB071706EB870ADAF8207038
:103F3000DAF81C003946FCF741FEB0B9DAF828106F
:103F4000DAF82400FCF7A6FC0146FCF79BFBD8F846
:103F50001C10FCF797FB804638464146FCF756FE9E
:103F6000002800F08E80CAF81C80AB4515D0CBEB42
:103F70000B13A0465F460BF1FF3106EB8304BBF148
:103F8000000FC9D14FF0230B99F800305B45C9D120
:103F900003F004FC019B1D78C4E7454B1B7800939C
:103FA0006C1CE4B2242C08BF0024009BC5EB051B4D
:103FB0009C4206EB8B0B37D0C4EB041806EB880849
:103FC000D8F81C90DBF81C7048463946FCF71EFEFA
:103FD0004FEA041AA0B1DBF82410DBF82800FCF744
:103FE00059FC0146FCF74EFB3946FCF74BFB4946B2
:103FF0008346FCF7EDFD18B1D9462546C8F81CB03C
:10400000AAEB040306EB8303186A4946FCF7D6FDC6
:10401000631C002818BF2546DCB2242C009B33D03B
:104020009C4234D1019B1D7003B0BDE8F08F214B41
:104030001D780193232DF7D01F4ED6F85818D6F8C7
:104040005C08FCF727FC0146FCF71CFBD6F85488FB
:1040500004464146FCF7C6FDE8B14FF0220BC6F816
:104060005048164C5D457FF454AF154B1B78AB425E
:1040700096D103F093FB0E4B1B780093019B1D78A8
:104080008EE7CAF81C7070E7002BCBD00024C34623
:1040900092E7D94632E744464FF0220BC6F8504823
:1040A000064CDFE7009B9A1E5FFA82FB2EE700BFFB
:1040B000AC0D0020AD0D00203C050020700D00204F
:1040C000AE0D002038B52C220021074805F0D4FDA4
:1040D000002301210548064A064D074C0370117064
:1040E0002B70237038BD00BFB00D0020AD0D002037
:1040F000AF0D0020AE0D0020AC0D00200A490B4B87
:104100000A781B7893420DD0531CDBB2242B08BFD6
:10411000002310B406480B700478944208BF037063
:1041200010BC7047704700BFAE0D0020AC0D0020E2
:10413000AD0D0020034B04481B78C3EB031300EBC9
:1041400083007047AC0D00203C050020064B074A59
:104150001B7812789A421DBF0548C3EB031300EB8E
:1041600083000020704700BFAE0D0020AC0D002082
:104170003C050020094B0A4A1B7812780133DBB258
:10418000242B08BF00239A4206D0064AC3EB031330
:1041900002EB8303D869704700207047AE0D002002
:1041A000AC0D00203C050020044A054B10781B781C
:1041B000C01AB0FA80F04009704700BFAE0D002071
:1041C000AF0D002038B5837E456BDA0714D5164B4A
:1041D000587AFCF70BFB1549FCF75CFB2946FCF70A
:1041E00059FB04464FF07E512046FCF705FD08B907
:1041F0004FF07E54204638BD5B0704460BD40A4B73
:10420000187AFCF7F3FA0949FCF744FB0146284603
:10421000FCF740FB0546246B29462046FCF7E2FCF0
:104220000028DFD12C46DDE7D01400200AD7233C3C
:104230002DE9F04F3B4A3C4B147893F800B083B023
:104240005C4568D0394D4FF07E59287AFCF7CEFA9C
:104250003749FCF71FFB0346687A0193FCF7C6FA5F
:104260003349FCF717FBDFF8CC80DFF8D0A00090D3
:1042700023E039460098FCF70DFB054649462846E1
:10428000FCF7BAFC00B94D4629464046FCF7A0FCB5
:10429000F76A002839D041464046FCF7FBFA8046D1
:1042A00041463846FCF794FC20B30134E4B2242C98
:1042B000376225D0A3452FD0A846C4EB04160AEBDD
:1042C0008606B37E776BDA074FEA0415D1D45B0715
:1042D00004D438460199FCF7DDFA07462D1B0AEB9A
:1042E00085052D6B39462846FCF77CFC0028C5D196
:1042F0003D46C3E70134E4B2242CC6F82080D9D16E
:10430000BBF1000F08D00024D6E729462846FCF769
:10431000C1FA8046C4E7074D074B9D6203B0BDE874
:10432000F08F00BFAE0D0020AC0D0020D014002097
:104330000AD7233CFFFF7F7FB00D00203C05002003
:104340002DE9F04F834B8B461D78834EC5EB051945
:1043500006EB89099BB0002107463C22484605F040
:104360008BFC9BF80830DBF8042099074CBFDFF882
:10437000F0C1DFF8F0C189F81A30C9F838200BAC69
:10438000BCE80F000FC4DFF8E0A1DCF80030DAF879
:1043900000203968104623600192FCF77BFA05F093
:1043A0008FFD01460B98D9F81440081A80EAE07C8A
:1043B000ACEBE07C644538BF64464FEA0518A8EBD7
:1043C000050346F823C006EB83035C610293069164
:1043D000FCF70CFA019A1146FCF710FB0021109033
:1043E000FCF7F6FB28B1029B5C4A198B12880A4342
:1043F0001A83DAF80420796810460192FCF74AFA29
:1044000005F05EFD01460C98A8EB0503081A80EA4A
:10441000E07CACEBE07C644538BF644606EB83038C
:10442000C3F804C05C6102930791FCF7DFF9019ABD
:104430001146FCF7E3FA00211190FCF7C9FB28B103
:10444000029B46491A8B49880A431A83DAF80820E6
:10445000B96810460192FCF71DFA05F031FD0146DE
:104460000D98A8EB0503081A80EAE07CACEBE07C31
:10447000644538BF644606EB8303C3F808C05C613B
:1044800002930891FCF7B2F9019A1146FCF7B6FACB
:1044900000211290FCF79CFB28B1029B2F491A8B3C
:1044A00089880A431A83DAF80C20F96810460192C9
:1044B000FCF7F0F905F004FD01460E98A8EB0503A2
:1044C000081A80EAE07CACEBE07C644538BF6446C7
:1044D00006EB8303C3F80CC05C6102930991FCF7FF
:1044E00085F9019A1146FCF789FA00211390FCF72F
:1044F0006FFB28B1029B19491A8BC9880A431A839A
:10450000DAF81030396918460193FCF7C3F905F061
:10451000D7FC02460F98A8EB0507101A80EAE07155
:10452000A1EBE0718C4238BF0C4606EB8707C7E968
:1045300004140A92FCF75AF9019B1946FCF75EFA3B
:1045400000211490FCF744FB80B9B4B920461BB09D
:10455000BDE8F08FAC0D00203C05002084B00008C1
:10456000FC140020B00D002094160020984B3A8BCC
:104570001B8913433B83002CE8D010A8FFF7BEFB38
:104580000346A8EB050406EB840410A9A362914836
:10459000FFF726FC034610A98F486362FFF720FC53
:1045A000A77E2063FA077AD4DBF800103B0761632B
:1045B00072D48A4B8A4A1B7812789A4201D0BC077F
:1045C00073D50022A8EB050306EB8303DA61DA62F8
:1045D000A8EB050306EB83039A7E900761D4D1070D
:1045E0005C6B00F1D38053070AD47E4B187AFCF73A
:1045F000FDF82146FCF74EF97B49FCF74BF90446E0
:10460000A8EB050506EB8506366B21463046FCF720
:10461000E9FA00B926464FF07E513046FCF7ECFA35
:1046200008B94FF07E56714F3146BC6AD9F82C500C
:104630002046FCF7CDFA002800F0B780214620463E
:10464000FCF728F9044621462846FCF7C1FA002861
:1046500040F0A880C9F82040BE62654F654C97F8CD
:1046600000C010AD0CF10106F6B2242E08BF0026E2
:104670000FCD0FC42B6806AD44F824390FCD0FC4FD
:104680002B68574A236082F800C03E70FFF70CFC8D
:1046900001201BB0BDE8F08FA06AFCF7FBF8606357
:1046A00087E701201BB0BDE8F08F504C109FD4F875
:1046B00014B039465846FCF7EDF8034659463846DB
:1046C0000193FBF7DDFF0346A769DDF844B03946E7
:1046D00058461593FCF7DEF8019B0146039003F161
:1046E0000040FBF7CDFF0346394658461F46FBF70F
:1046F000C7FF0246E369DDF848B0194658461692EE
:104700000293FCF7C7F8014604903846FBF7B8FF60
:10471000029B074619465846FBF7B2FF0246236A3A
:10472000DDF84CB01946584602931792FCF7B2F8E0
:10473000014605903846FBF7A3FF0246029B584608
:1047400019469346FBF79CFF0246149B646A194680
:10475000204602931892FCF79DF8074658463946C2
:10476000FBF78EFF029B214604461846FBF788FFA5
:104770000346214920461993FCF748FAD8B1002294
:10478000A8EB050306EB8303DA6221E7154B587AA1
:10479000FCF72CF82146FCF77DF81349FCF77AF872
:1047A000064638E7C9F8205056E731463046FCF750
:1047B00071F8044647E720461049FCF709FA08B3A8
:1047C0000F4AA8EB050306EB8303DA6200E700BF9C
:1047D00084B00008BC160020A8160020AE0D0020F2
:1047E000AC0D0020D01400200AD7233CB00D0020CF
:1047F000AF0D0020C40D0020EFFF7F3FEFFF7FBF14
:10480000FFFF7F7F15A8FFF779FA15A91E48FFF76C
:10481000E7FA019983460398FBF734FF0499FBF705
:1048200031FF0599FBF72EFF4FF07E5104463846C5
:10483000FBF728FF01462046FBF724FF4FF07C5191
:10484000FCF728F805F0A0FB044658462146FCF783
:1048500021F8DAF85810FCF71DF8214604464FF00D
:104860007E50FBF70DFF01462046FCF7C7F8A8EB8A
:1048700005070021044606EB8707FCF7BDF900B9E0
:104880000024FC62A4E600BFBC16002030B4044D36
:10489000044C0FCD0FC42B68236030BC704700BFA1
:1048A000FC140020B00D0020064A074B12781B783C
:1048B0009A4233BF03F1FF302333981A801AC0B2F3
:1048C000704700BFAC0D0020AE0D002008B502F00F
:1048D00065FF044A044B12781A70BDE80840FFF7E0
:1048E000E3BA00BFAE0D0020AD0D002010B50446A8
:1048F000007828B101F01AFE14F8010F0028F9D150
:1049000010BD00BF6328F8B504461DD91B4EA6FB99
:104910000035EF08A6FB0736F60806F1300006EB77
:104920008606A7EB460601F001FE06F13000C0B294
:1049300001F0FCFD07EB8700A4EB40003030C0B273
:10494000BDE8F84001F0F2BD092806D804F13000B6
:10495000C0B2BDE8F84001F0E9BD0A26B4FBF6F5A7
:1049600005F13000C0B201F0E1FD06FB1540BDE8E5
:10497000F8403030C0B201F0D9BD00BFCDCCCCCCB6
:10498000F0B50D4685B000210646FCF721F9002858
:1049900040F0D280012D40F2D7802C46704F304637
:1049A0003946FBF777FF023CE4B2012C0646F6D805
:1049B00005F0010323B130466A49FBF76BFF064659
:1049C0004FF07C513046FBF75DFEFCF73FF90028C5
:1049D00000F0BC800024644F0246A7FB0013DB08F4
:1049E00003EB8301A0EB410004A900F13006214450
:1049F000092A04F10104184601F8106CE4B2EBD85E
:104A0000A54272D93022631CDBB204A921449D4225
:104A100001F8102C61D9A01CC0B204A91944854228
:104A200001F8102C59D9E11C04AEC9B23044A94296
:104A300000F8102C51D2201DC0B23144A84201F818
:104A4000102C4AD2611DC9B230448D4200F8102C9E
:104A500043D9A01DC0B23144854201F8102C3CD985
:104A6000E11DC9B230448D4200F8102C35D904F153
:104A70000800C0B23144854201F8102C2DD904F150
:104A80000901C9B230448D4200F8102C25D904F137
:104A90000A00C0B23144854201F8102C1DD91646D7
:104AA00004F10B0204A9D2B20844954200F8106C3C
:104AB00013D904F10C0104A8C9B202448D4202F8D2
:104AC000106C0AD904F10D02D2B20144954201F8EA
:104AD000106C02D9024402F8106C6A1E141B9D422D
:104AE00038BF00241C4404F0FF04A5421CD06CB164
:104AF0006F1E0DEB0406FFB2A54209D016F8010D9A
:104B0000013C01F013FD14F0FF04F5D105B0F0BD38
:104B10002E2001F00BFD16F8010D01F007FD3C46BB
:104B2000002FE9D105B0F0BD302204AB6C1C2B4442
:104B300003F8102CE4B2DAE72D2001F0F7FC012D88
:104B400006F100463FF629AF2B4633E70446002D19
:104B50007FF458AF302301248DF80030C8E700BF40
:104B60000000C84200002041CDCCCCCCF0B57F4B3A
:104B700085B093F8684014F0010473D07C49FBF7CA
:104B800089FE00210546FCF723F8002840F0CD807F
:104B900078492846FBF77EFE4FF07C51FBF772FD0B
:104BA000FCF754F8002800F0C6800025DFF8CCC1DF
:104BB0002A460146ACFB0043DB0803EB8304A0EB71
:104BC000440000F1300704A8861801350929184669
:104BD000EDB206F8107CEBD8032D23D83021941CBD
:104BE000E4B204AB2B44042C03F8101C00F0B68094
:104BF0000332D2B204AB2344042A03F8101C00F0A1
:104C0000B380302304A91144022A01F8103C01D1D9
:104C10008DF80330042CC5F1030588BF00252C4412
:104C200004F0FF05042D03D1302305258DF8043051
:104C30006E1EF6B208E013F8110C01F077FC7EB19D
:104C4000013D013EEDB2F6B204AB042D2B44F2D18E
:104C50002E2001F06BFC9DF8030001F067FCEFE7EC
:104C600005B0F0BD00210546FBF7B2FF002869D171
:104C700041492846FBF70EFE4FF07C51FBF702FD41
:104C8000FBF7E4FF002864D03C4F22460146A7FB17
:104C90000043DB0803EB8304A0EB440000F1300683
:104CA00004A88518541C09291846E4B205F8106CAC
:104CB000EBD8022C1AD83020931CDBB204A9214473
:104CC000032B01F8100C4BD004A90B44FF2A03F866
:104CD000100C47D1302201238DF80220032BC4F1A0
:104CE000020488BF00241C4404F0FF04032C03D1F9
:104CF000302304248DF80330651EEDB209E013F86B
:104D0000110C01F013FC002DAAD0013C013DE4B2CE
:104D1000EDB204AB032C2344F1D12E2001F006FCAC
:104D20009DF8020001F002FCEFE72D2001F0FEFBF0
:104D300005F100452CE743F2300305460222ADF8A9
:104D400000305EE72D2001F0F1FB05F10040054643
:104D50008EE743F23003ADF80030BBE7032559E797
:104D60000224BBE70223B9E7032453E7941600208B
:104D70008B42213D00401C4600007A44CDCCCCCC77
:104D8000F0B54A4B85B093F8684014F0010446D062
:104D90004749FBF77FFD00210446FBF719FF002878
:104DA0006DD144492046FBF775FD4FF07C51FBF770
:104DB00069FCFBF74BFFB8B100243F4E0246A6FB4F
:104DC0000013DB0803EB8301A0EB410004A900F111
:104DD00030052144092A04F10104184601F8105C49
:104DE000E4B2EBD8002C5DD130238DF800303023B5
:104DF00002248DF8013004AB2344013C13F8110C5C
:104E0000E4B201F093FB012CF5D12E2001F08EFBD2
:104E10009DF8000005B0BDE8F04001F087BB00211F
:104E20000546FBF7D5FEB0BB4FF07C512846FBF79B
:104E300029FCFBF70BFF40B31F4F22460146A7FB9F
:104E40000043DB0803EB8304A0EB440000F13006D1
:104E500004A88518541C09291846E4B205F8106CFA
:104E6000EBD894B10DF1FF331D19AD1A6C4414F851
:104E7000010D01F05BFBA542F9D105B0F0BD2D207D
:104E800001F054FB04F100448BE7302005B0BDE88D
:104E9000F04001F04BBB2D2001F048FB05F1004034
:104EA0000546C1E7012CA6D1A1E700BF941600205A
:104EB0008B42213D00002041CDCCCCCC00B501215E
:104EC00083B00820FCF75CFA094B01A9094801935B
:104ED000FCF76AF80021084A084B92F9682019800B
:104EE0008A42A4BF4FF400721A8003B05DF804FB3D
:104EF00000020348000C0140941600201215002007
:104F000000230749074A91F9681013809942AABF04
:104F10004FF400714FF40073118000B1138070479B
:104F2000941600201215002008B50548FCF7C2F9B8
:104F3000044B00F400701B88181A18BF012008BD2C
:104F4000000C01401215002070B50C48FCF7B2F9B6
:104F50000B4B00F400701B8883420DD00022094BDC
:104F6000094D0A4C1A700A4E0FCD0FC433782A68C7
:104F700043F040033370226070BD00BF000C01405D
:104F800012150020E6140020FC140020E814002074
:104F9000E514002008B5FFF7D9F820B1BDE80840B6
:104FA000022003F0CFBB08BDF8B5AF4B1B78002B38
:104FB00040F08380AD4CAE4D2B7803F0FF0593B3EA
:104FC000EA0600F1E280EB0700F1FC8015F0E80F43
:104FD0000AD023789F0700F006816EB2002EC0F23F
:104FE0003D81E82003F0B8FBAE0719D515F0680F36
:104FF00013D12378402B00F06F81002B40F05581B6
:1050000000232371FFF7A2F820B1A37813F0400327
:1050100000F097810023A3702370022003F09CFB13
:105020006B0700F1B580934B1B7803F0FF05002B55
:1050300070D1914B1B7803F0FF0523B9237813F04F
:10504000FC0F36D1F8BD03F0BDFBA27A15F0010FBD
:105050000CBF13466423A80744BF0A33DBB26907B9
:1050600044BF0A3BDBB22F0744BF0133DBB2EE067D
:1050700044BF03F1FF33DBB2C82B28BFC8230A2B80
:1050800038BF0A239A4206D000212279A37242F047
:10509000080323712173A80623781DD5102B1BD17B
:1050A000E37A002B40F021810223E37215F0C00F58
:1050B00018D1BDE8F84002F087BB012603F0FF05D8
:1050C0006A4C2846013D267000F07AFBB5427FD934
:1050D000674D03F053FB6FE715F0C00FAFD0002B07
:1050E00040F0F580654F2A063E7A05D533064CBF61
:1050F00006F07F0646F08006680605D571064CBFAF
:1051000006F0BF0646F040063046FCF771FA2378F9
:105110003E7294E703F04EFB217A15F0010F0CBFAD
:105120000B466423AE0744BF0A33DBB2680744BFB3
:105130000A3BDBB22F0744BF0133DBB2EE0644BFAC
:1051400003F1FF33DBB2C82B28BFC8230A2B38BFBB
:105150000A23607A15F0200F14BF6422024615F06E
:10516000400F18BF322215F0800F18BF1922994244
:1051700002D182423FF45DAF00212372627221733B
:10518000FFF756F8FFF7A2FB53E701236370F8BD62
:10519000237813F0D00F02D0E378002B70D094F96D
:1051A0000220A378002A6FDB13F0200253D04022A4
:1051B00003F07F0343F00103A3702270042003F087
:1051C000CBFA30E700F06AFF012003F0C5FAFDE6F4
:1051D000304600F00BFB102003F0BEFA244D2B7874
:1051E000D906FCD575E713F0280F0ED0A27812F07F
:1051F000C00F00F094806AB2164668060FD5990673
:105200000DD4A17841F0400107E0002BF3D1012239
:105210006E06A27070D541216AB21646A1702A07A7
:1052200002D513F0E00F6AD0AB067FF5D7AE0620AB
:1052300000F0DCFA94F90220A378002A07DB227838
:10524000402A00F08D80802A01D04022227043F055
:105250002003A370C2E6A2702270AFE72378012B6F
:105260001ED080232370BCE610150020D01400202F
:10527000E5140020CC140020E414002020140020A9
:1052800094F90230002B3DDA00232371FEF71AFF58
:1052900002F05AF9FCF7B0FAFFF7F8FAA37883E7BF
:1052A000A37843F00503A370DBE7DA067FF5B5AE1C
:1052B000A278D2077FF5B1AE102B7FF4A1AEE37ACE
:1052C000002B3FF49DAE43F00803E372A5E613F014
:1052D000180F3FF4B4AE05E7A37813F020027FF473
:1052E0009CAED80635D522708AE6D9077FF5DEAEAA
:1052F00043F00403E372D9E62B076EB294D5102372
:10530000237091E7FFF7E2FA23799F0703D5A2788C
:1053100042F00102A27023F0060323714EE702F06F
:105320003DFA022223782271202B7FF46EAF6AB2FD
:10533000002A1646FFF661AFA17861F07F01A170E7
:105340005BE70822A370227002F03EFA01F0CEFE65
:1053500063E659077FF561AE43F00803A3705CE68E
:105360001F077FF572AF23F01C0343F002036CE7C5
:105370002DE9F04F83B0FEF7E9FE002800F0E3804E
:10538000867ED0F838808D4F97F868309A0700F104
:10539000C880DFF830B29BF80240002C49D00025CD
:1053A0004FF07E594FF0814A9BF80120002A40D1EE
:1053B000E30738D59BF8001011F0C0003CD014F082
:1053C000040462D0802900F0D580402900F09D803F
:1053D0009BF80230180726D5794C627A002A00F033
:1053E000858099071FD497F86820920773D59BF89A
:1053F0000420217A42F008028BF8042061B106F003
:105400004000FCF7F5F801214846FEF71DFC9BF82B
:10541000023003F0020232B943F0100302208BF88D
:10542000023003F08FF9FFF7BFFD9BF80240002C1C
:10543000BAD103B0BDE8F08F9BF80B307BB19C076D
:105440003CD55F4B5B7A002B6FD100238BF80B3080
:10545000FFF7AAFD9BF80240002CA5D1E9E79BF8D5
:1054600004301B07DFD5414606F0300001F0FAFC9E
:105470009BF8043023F008038BF80430FFF794FD09
:105480009BF80240002C8FD1D3E7294620468BF8A9
:105490000B4001F0E7FC2046FCF7AAF89BF802302D
:1054A00023F0020343F004038BF80230FFF77CFD86
:1054B0009BF80240002C7FF477AFBAE713F00C0F93
:1054C000B1D03F4A527A002A44D11A07BDD50220F2
:1054D00003F038F9B9E7414606F0300001F0C2FCAC
:1054E00001215046FEF7B0FB9BF80230217A03F011
:1054F000020200298FD0002A81D0FFF755FD9BF8CA
:105500000240002C7FF450AF93E702F0D1FE9BF8ED
:10551000023000287FF45EAF03F0DF038BF8023027
:1055200058E7202003F03CF933E7294601F09AFCC4
:1055300001238BF80B30FFF737FD9BF80240002C5E
:105540007FF432AF75E71E4B5E7A1A7AD3F80C807F
:10555000164318E70A2000F049F997F868309907D0
:1055600023D59BF804209BF80B3042F008028BF8FF
:105570000420AAE70B20019200F038F9019A0021DB
:10558000104601F06FFC019A1046FCF731F801F06B
:10559000EDFD9BF80130002B7FF44BAFFFF704FDCE
:1055A0009BF80130002BF9D043E7414606F030006C
:1055B00001F058FC9BF80B3087E700BF94160020E1
:1055C00020140020D014002008B5FFF7EDFC044B98
:1055D0009B7803B908BDBDE80840FFF7C9BE00BF0E
:1055E000D01400202DE9F041574B93F868301A078A
:1055F00000F19080554E337813F0810375D002206E
:1056000000F0F4F80123337000242546DFF84081D0
:1056100000F0B6FFFF280FD00A281DD00D281BD0A0
:10562000002D35D02928F3D1AB07F1D500F0A8FF24
:10563000FF2805F0FD05EFD1FEF788FD10B102202F
:1056400003F080F8FFF7B0FCB378002B3AD1737801
:10565000002BDDD0BDE8F081FFF7A6FCB3781BBBC3
:105660007778002FF6D108F80470FDF795FF15F054
:1056700001051CD198F80040FCB1242C2CD03478C2
:1056800014F0210421D0092000F082F82C46BFE755
:105690002028BDD92F28BBD0282824D03B2837D09C
:1056A000582C2AD90125B3E7FFF762FED8E70B2073
:1056B0003C463D4600F06CF8AAE7204600F068F84A
:1056C0002546A5E7FFF754FEC1E74046FCF79CF8E6
:1056D00000F05EF825469BE7404602F00DFE00F024
:1056E00057F82C4694E7022592E7337002F0E0FD6C
:1056F000E0B9174802F0DEFD86E7A0F16103DBB2F6
:10570000192B98BF2038631C08F80400DCB27FE72F
:1057100004257DE7FDF754FB00283FF46BAF012320
:105720000A4E0720337000F061F864E7094A1378E5
:1057300043F020031370FFF737FCB378002BD8D069
:10574000FFF716FED5E700BF94160020D014002006
:10575000DC0D0020E514002010B5FEF7F7FC10B1B9
:10576000022002F0EFFF094CFFF71EFCA3784BB9B3
:10577000637833B9FEF7EAFC0028F5D12378082BCB
:10578000F2D010BDFFF7F4FDF2E700BFD014002007
:1057900010B90848FFF7AAB810B504460648FFF745
:1057A000A5F82046FFF7AEF8BDE810400348FFF724
:1057B0009DB800BF6CAE000874AE00087CAE000857
:1057C00010B504460748FFF791F82046FFF79AF80E
:1057D0000548FFF78BF8BDE810404FF4FA70FEF76C
:1057E0006BBA00BF80AE00087CAE000810B504465E
:1057F0002048FFF77BF8601E0A280AD8DFE800F08F
:105800001115191D2125292D313506001A48FFF7DC
:105810006DF85D2000F08AFEBDE810401748FFF7E4
:1058200065B81748FFF762F8F3E71648FFF75EF828
:10583000EFE71548FFF75AF8EBE71448FFF756F87B
:10584000E7E71348FFF752F8E3E71248FFF74EF88F
:10585000DFE71148FFF74AF8DBE71048FFF746F8A3
:10586000D7E70F48FFF742F8D3E70E48FFF73EF8B7
:10587000CFE700BF88AE00082CAF00087CAE000860
:1058800090AE0008A4AE0008B8AE0008CCAE000888
:10589000D4AE0008E0AE0008ECAE0008FCAE000894
:1058A00004AF000818AF00080148FFF71FB800BF99
:1058B00038AF00080148FFF719B800BF58AF00081B
:1058C0002DE9F04FDF4C83B0242094F8505000F0C5
:1058D0002DFE0020FFF716F83D2000F027FE284699
:1058E000FFF710F8D848FFF701F8242094F8565035
:1058F00000F01CFE0120FFF705F83D2000F016FE29
:105900002846FEF7FFFFD048FEF7F0FF2420B4F84A
:10591000525000F00BFE0220FEF7F4FF3D2000F095
:1059200005FEE8B2FEF7EEFFC748FEF7DFFF2420D2
:10593000B4F8545000F0FAFD0320FEF7E3FF3D20D9
:1059400000F0F4FDE8B2FEF7DDFFBF48FEF7CEFF42
:1059500094F86850242000F0E9FD0420FEF7D2FFFF
:10596000C5F380053D2000F0E1FD2846FEF7CAFFA3
:10597000B548FEF7BBFF94F86850242000F0D6FD30
:105980000520FEF7BFFFC5F380153D2000F0CEFDDA
:105990002846FEF7B7FFAC48FEF7A8FF94F868501A
:1059A000242000F0C3FD0620FEF7ACFFED093D20EA
:1059B00000F0BCFD2846FEF7A5FFA348FEF796FFC2
:1059C000242094F8575000F0B1FD0A20FEF79AFF0A
:1059D0003D2000F0ABFD2846FEF794FF9A48FEF705
:1059E00085FF2420A56D00F0A1FD0B20FEF78AFFA6
:1059F0003D2000F09BFD03212846FEF7C1FF9248A1
:105A0000FEF774FF2420E56D00F090FD0C20FEF7FA
:105A100079FF3D2000F08AFD03212846FEF7B0FF04
:105A20008948FEF763FF94F86850242000F07EFD5B
:105A30000D20FEF767FF05F001053D2000F076FD23
:105A40002846FEF75FFF8048FEF750FF94F8685045
:105A5000242000F06BFD1420FEF754FFC5F3401521
:105A60003D2000F063FD2846FEF74CFF7648FEF728
:105A70003DFF94F86850242000F058FD1520FEF7F3
:105A800041FFC5F3C0053D2000F050FD2846FEF75C
:105A900039FF6D48FEF72AFF94F86850242000F083
:105AA00045FD1620FEF72EFFC5F300153D2000F042
:105AB0003DFD2846FEF726FF6348FEF717FF24202A
:105AC000B4F86A5000F032FD1720FEF71BFF3D20AE
:105AD00000F02CFDE8B2FEF715FF5B48FEF706FF6D
